:100000000C942A000C9434000C9434000C943400AA
:100010000C9434000C9434000C9434000C94340090
:100020000C9434000C9434000C9434000C94340080
:100030000C9434000C9434000C9434000C94340070
:100040000C9434000C9434000C9434000C94340060
:100050000C94340011241FBECFE5D4E0DEBFCDBF29
:100060000E944A000C945E000C94000020B3221FF2
:100070002227221F30E02817390759F083ED90E33B
:100080000197F1F700C0000080B3881F8827881F00
:1000900090E00895BB9A8F98C39A979AC1E0D0E0F8
:1000A00018E001C0EC01CE010E9436000097D1F7A4
:1000B0002197C1F728B3212728BBF4CFF894FFCFAD
:00000001FF
