S01100004D6F746F72436F64652E7372656387
S11300000C942A000C943C000C943C000C943C008E
S11300100C943C000C943C000C943C000C943C006C
S11300200C943C000C943C000C943C000C943C005C
S11300300C943C000C943C000C94A1010C943C00E6
S11300400C943C000C943C000C943C000C943C003C
S11300500C943C0011241FBECFE5D4E0DEBFCDBF1D
S113006020E0A0E6B0E001C01D92A636B207E1F799
S11300700E9448000C94CD010C940000329A87B180
S1130080806687B986B1886886B97894369A089567
S1130090BB9A8F9AB89AB99A83B7896683BF85B594
S11300A0896685BDD0E0C0E001E00F2EF3E0FF2EAD
S11300B0F02D12E00E943E000E943E002091640058
S11300C0309165003250C90199230CF4019695953D
S11300D08795409160005091610052509A015523D8
S11300E014F42F5F3F4F35952795AC01475F5F4F61
S11300F04331510508F418C1A901475F5F4F4331EB
S1130100510508F4FDC099230CF443C033230CF4C7
S113011013C107C02D2F3C2F04C08D2F9C2F2D2FD2
S11301203C2FAC01421B530B59F4AC01992324F42A
S113013044275527481B590B4CBF13BC18BAE6C0BB
S1130140141615068CF4BC01992324F4662777272A
S1130150681B790B6CBFBA01552324F466277727F3
S1130160641B750B63BD18BB55230CF0CFC0B901DC
S1130170332324F466277727621B730B6CBFBA0101
S1130180552324F466277727641B750B63BD18BBBE
S1130190BDC033230CF4BFC0AC01420F531F411543
S11301A0510559F41CBEA901332324F444275527CF
S11301B0421B530B43BD18BA27C0141615068CF402
S11301C0BA01552324F466277727641B750B6CBF8B
S11301D0B901332324F466277727621B730B63BDAD
S11301E018BA55238CF4BA01552324F466277727CB
S11301F0641B750B6CBFAC01992324F44427552769
S1130200481B590B43BD08BB9923F4F1121613067E
S11302100CF450CFA901480F591F4115510559F449
S11302201CBEA901332324F444275527421B530B36
S113023043BD18BB74C0141615068CF4BA015523BB
S113024024F466277727641B750B6CBFBC019923C4
S113025024F466277727681B790B63BD18BB5523E5
S11302600CF05DC0BA01552324F466277727641B7C
S1130270750B6CBFA901332324F444275527421B73
S1130280530B43BDF8BA4BC0121613060CF412CF2D
S1130290AC01421B530B59F49C01992324F42227EB
S11302A03327281B390B2CBF13BC08BB03CF1416F0
S11302B015068CF4B901332324F466277727621BCF
S11302C0730B6CBF9A01552324F422273327241B74
S11302D0350B23BDF8BA55230CF0ECCE9C019923C1
S11302E024F422273327281B390B2CBFCA01992356
S11302F024F488279927841B950B83BD08BBDACE89
S113030099230CF007CF2D2F3C2F43CF1816190635
S11303100CF47CCF41CF99230CF07CCFB9CF1816C5
S113032019060CF4C7CEB4CFC9010996439708F453
S1130330F4CE8D2F9C2FE7CE181619060CF466CF39
S113034069CF1F920F920FB60F9211242F938F93A0
S11303509F9384B125B190E0922B90936300809396
S1130360620027B1203C19F0213C41F00DC090936C
S113037065008093640081EC87B906C090936100A6
S11303808093600080EC87B9369A9F918F912F916A
S11103900F900FBE0F901F901895F894FFCF9A
S9030000FC
