S016000044656C61792066756E6374696F6E2E7372656399
S11300000C942A000C9434000C9434000C943400A6
S11300100C9434000C9434000C9434000C9434008C
S11300200C9434000C9434000C9434000C9434007C
S11300300C9434000C9434000C9434000C9434006C
S11300400C9434000C9434000C9434000C9434005C
S11300500C94340011241FBECFE5D4E0DEBFCDBF25
S11300600E9471000C940D020C9400008F929F92D8
S1130070AF92BF92CF92DF92EF92FF92BC01990FA1
S1130080880B990B0E94EB002AE939E949EB50E40B
S11300900E947C014B015C0120E030E0A9010E9438
S11300A077011816ACF4C12CD12C760120E030E095
S11300B040E85FE3C701B6010E947D006B017C014B
S11300C09B01AC01C501B4010E947701181674F3B9
S11300D0FF90EF90DF90CF90BF90AF909F908F9064
S11300E00895BB9AC398C8E088B38C2788BB88EE70
S11300F093E00E943600F8CF5058BB27AA270E94ED
S113010094000C943D010E942F0138F00E943601A6
S113011020F039F49F3F19F426F40C942C010EF4CA
S1130120E095E7FB0C942601E92F0E944E0158F359
S1130130BA17620773078407950720F079F4A6F5C8
S11301400C9470010EF4E0950B2EBA2FA02D0B0128
S1130150B90190010C01CA01A0011124FF27591B08
S113016099F0593F50F4503E68F11A16F040A22F0E
S1130170232F342F4427585FF3CF4695379527957F
S1130180A795F0405395C9F77EF41F16BA0B620B7E
S1130190730B840BBAF09150A1F0FF0FBB1F661FC5
S11301A0771F881FC2F70EC0BA0F621F731F841F08
S11301B048F4879577956795B795F7959E3F08F02E
S11301C0B0CF9395880F08F09927EE0F97958795F0
S11301D00895E89409C097FB3EF490958095709536
S11301E061957F4F8F4F9F4F9923A9F0F92F96E97F
S11301F0BB279395F695879577956795B795F111F4
S1130200F8CFFAF4BB0F11F460FF1BC06F5F7F4F90
S11302108F4F9F4F16C0882311F096E911C07723A2
S113022021F09EE8872F762F05C0662371F096E8AB
S1130230862F70E060E02AF09A95660F771F881F7A
S1130240DAF7880F9695879597F9089597F99F6738
S113025080E870E060E008959FEF80EC089500244A
S11302600A941616170618060906089500240A9417
S113027012161306140605060895092E0394000C9D
S113028011F4882352F0BB0F40F4BF2B11F460FF2C
S113029004C06F5F7F4F8F4F9F4F089557FD905855
S11302A0440F551F59F05F3F71F04795880F97FB36
S11302B0991F61F09F3F79F08795089512161306F0
S11302C01406551FF2CF4695F1DF08C0161617061F
S11302D01806991FF1CF8695710561050894089554
S11302E0E894BB2766277727CB0197F908950E94E6
S11302F0E90108F48FEF08950E948F010C943D01E9
S11303000E942F0138F00E94360120F0952311F04D
S11303100C9426010C942C0111240C9471010E945C
S11303204E0170F3959FC1F3950F50E0551F629FE6
S1130330F001729FBB27F00DB11D639FAA27F00D3A
S1130340B11DAA1F649F6627B00DA11D661F829F61
S11303502227B00DA11D621F739FB00DA11D621F46
S1130360839FA00D611D221F749F3327A00D611D63
S1130370231F849F600D211D822F762F6A2F112445
S11303809F5750409AF0F1F088234AF0EE0FFF1F78
S1130390BB1F661F771F881F91505040A9F79E3FCF
S11303A0510580F00C9426010C9471015F3FE4F335
S11303B0983ED4F3869577956795B795F795E79525
S11303C09F5FC1F7FE2B880F911D9695879597F92E
S11303D00895990F0008550FAA0BE0E8FEEF1616D2
S11303E01706E807F907C0F012161306E407F50725
S11303F098F0621B730B840B950B39F40A2661F099
S1130400232B242B252B21F408950A2609F4A1403B
S1110410A6958FEF811D811D0895F894FFCFEE
S9030000FC
