S01A00004475616C41444377697468506F6C6C696E672E737265632B
S11300000C942A000C943C000C943C000C943C008E
S11300100C943C000C943C000C943C000C943C006C
S11300200C943C000C943C000C943C000C943C005C
S11300300C943C000C943C000C943C000C943C004C
S11300400C943C000C943C000C943C000C943C003C
S11300500C943C0011241FBECFE5D4E0DEBFCDBF1D
S113006020E0A0E6B0E001C01D92AD36B207E1F792
S11300700E949D010C94C3010C94000080E687B992
S113008084E886B9089527B187709927822B87B9A8
S1130090369A369B03C0349A3699FDCF24B1209307
S11300A0680085B130E4839FC0011124269526950C
S11300B0822B909365008093640085B190E0805812
S11300C0910990936A008093690008959C01225ECF
S11300D03F4F2D33310508F420C19B01225E3F4F71
S11300E02D33310508F405C199230CF444C077235A
S11300F00CF41BC107C060E070E004C080E090E035
S113010060E070E09C01261B370B59F49C01992395
S113011024F422273327281B390B2CBF13BC18BA0D
S1130120EEC01216130694F4AC01992324F4442768
S11301305527481B590B4CBFA901332324F44427EA
S11301405527421B530B43BD42E048BB33230CF0FD
S1130150D6C0AB01772324F444275527461B570BFD
S11301604CBFA901332324F444275527421B530BC6
S113017043BD18BAC4C077230CF4C6C09C01260F33
S1130180371F2115310559F49B01772324F42227C5
S11301903327261B370B23BD1CBE18BA28C01216E2
S11301A013068CF4A901332324F444275527421B56
S11301B0530B4CBFAB01772324F444275527461B2C
S11301C0570B43BD18BA332394F4A901332324F401
S11301D044275527421B530B4CBF9C01992324F4FD
S11301E022273327281B390B23BD21E028BB992361
S11301F00CF441C0161617060CF49CC09B01280F82
S1130200391F2115310561F41CBE9B01772324F4A9
S113021022273327261B370B23BD22E028BB78C0B7
S11302201216130694F4A901332324F44427552702
S1130230421B530B4CBFAC01992324F4442755278C
S1130240481B590B43BD42E048BB33230CF060C04C
S1130250A901332324F444275527421B530B4CBFD5
S11302609B01772324F422273327261B370B23BD36
S113027023E028BB4DC0161617060CF45BC09C0186
S1130280261B370B61F49C01992324F4222733277E
S1130290281B390B2CBF13BC81E088BB4BC0121642
S11302A0130694F4AB01772324F444275527461B03
S11302B0570B4CBFA901332324F444275527421B71
S11302C0530B43BD43E048BB3323A4F5AC0199234E
S11302D024F444275527481B590B4CBFC9019923C3
S11302E024F488279927821B930B83BD81E088BB64
S11302F021C099230CF0FFCE60E070E03CCF1816CB
S113030019060CF477CF3ACF99230CF077CFB7CFF7
S1130310181619060CF0B3CF0DC0CB014E96CD972D
S113032008F4ECCE80E090E0DFCE181619060CF449
S113033061CF64CF80E090E00895BB9A8F9AB89A19
S1130340B99A83B7896683BF85B5896685BD0E94DE
S11303503E0082E090E00E94430090936C00809302
S11303606B000E943E0081E090E00E944300909365
S1130370630080936200BC0180916B0090916C00DB
S10D03800E946600E4CFF894FFCF5A
S9030000FC
