:100000000C942A000C9434000C9434000C943400AA
:100010000C9434000C9434000C9434000C94340090
:100020000C9434000C9434000C9434000C94340080
:100030000C9434000C9434000C9434000C94340070
:100040000C9434000C9434000C9434000C94340060
:100050000C94340011241FBECFE5D4E0DEBFCDBF29
:100060000E944F000C945B000C94000087B18066E6
:1000700087B986B1846886B9089527B187709927B2
:10008000822B87B9369A369BFECF83EC99E0019795
:10009000F1F700C00000349A84B190E0089583B76E
:1000A000896683BFBB9A0E94360085E090E00E947B
:0A00B0003D008CBFF8CFF894FFCF9D
:00000001FF
