S010000050574D46494E414C2E73726563B6
S11300000C942A000C9434000C9434000C943400A6
S11300100C9434000C9434000C9434000C9434008C
S11300200C9434000C9434000C9434000C9434007C
S11300300C9434000C9434000C9434000C9434006C
S11300400C9434000C9434000C9434000C9434005C
S11300500C94340011241FBECFE5D4E0DEBFCDBF25
S11300600E9436000C9466000C94000083B78966E5
S113007083BFBB9A80E090E08CBFE3ECF9E031975A
S1130080F1F700C0000001968115F1E09F07A1F788
S11300902FE986E891E0215080409040E1F700C0CC
S11300A000008FEF90E08CBFE3ECF9E03197F1F7BB
S11300B000C000000197B8F72FE986E891E02150CD
S11300C080409040E1F700C00000D4CFF894FFCF07
S9030000FC
