S0260000414443284E4557204455414C2020494E544552525550542046494E414C292E737265631E
S11300000C942A000C943C000C943C000C943C008E
S11300100C943C000C943C000C943C000C943C006C
S11300200C943C000C943C000C943C000C943C005C
S11300300C943C000C943C000C9450000C943C0038
S11300400C943C000C943C000C943C000C943C003C
S11300500C943C0011241FBECFE5D4E0DEBFCDBF1D
S113006020E0A0E6B0E001C01D92A836B207E1F797
S11300700E943E000C94B2000C94000083B7896681
S113008083BF85B5896685BDBB9A8F9A87B1806623
S113009087B9329A379A339A359A7894369AFFCF39
S11300A01F920F920FB60F9211242F933F934F93E9
S11300B08F939F9385B190E090936100809360004B
S11300C084B190E0909365008093640025B140E48E
S11300D0249F900111249595879595958795822B5A
S11300E0932B909363008093620085B190E08058D5
S11300F091099C01275E3F4F2333310528F09093EB
S113010067008093660004C0109267001092660036
S113011087B1803619F0813671F019C0809166007C
S11301209091670099231CF49195819591098CBF56
S113013081E687B90CC0809166009091670099238D
S11301401CF491958195910983BD80E687B9369A0F
S11301509F918F914F913F912F910F900FBE0F90D0
S10B01601F901895F894FFCFDD
S9030000FC
